:1000000012C024C023C022C021C020C01FC01EC0F7
:100010001DC01CC01BC01AC019C018C017C016C014
:1000200015C014C013C011241FBECFE5D4E0DEBF3D
:10003000CDBF10E0A0E6B0E0E4EEF1E002C0059034
:100040000D92A438B107D9F794D0CAC0D9CFB99AC4
:100050008FB581688FBD8EB589608EBD089584E1AE
:1000600090E020EA3FE09BBD8ABDF9013197F1F7AE
:10007000019641E080309407B1F708958FEF90E04A
:1000800020EA3FE09BBD8ABDF9013197F1F7019766
:1000900083319105B9F70895C39A98B3282F207F2B
:1000A0009F70922B98BBC3980000C39A98B3829517
:1000B000807F9F70892B88BBC3988DE08A95F1F76C
:1000C0000895C29881E0E8DFC29A8AE991E0019739
:1000D000F1F70895EF92FF920F931F93CF93DF9361
:1000E000E82FF92FDF010D900020E9F711971A2F63
:1000F000181B111664F4082FE82EE7017E01F92E73
:10010000E7018991C9DF7E01E01AE116D4F3DF919E
:10011000CF911F910F91FF90EF9008958CEF87BBC7
:1001200018BA82EF9BE20197F1F7C39A88B3806314
:1001300088BBC39881E094E00197F1F7C39AC39814
:1001400081E2982F9A95F1F7C39AC3988A95F1F7AF
:10015000C39AC498C398C29888E29EDFC29AC29894
:1001600086E09ADFC29AC2988EE096DFC29AA9DF33
:100170000895EF92FF920F931F93CF93DF93CEDFFB
:1001800066DF789480E197E229E130E0F901319768
:10019000F1F70197D9F780E690E09CDF80E197E2E4
:1001A00029E130E0F9013197F1F70197D9F706E637
:1001B00010E0C8EAD1E60F2EF6E7EF2EF0E0FF2EB2
:1001C000F02D7FDFC80186DF4ADFCE010197F1F70E
:1001D00078DFC7017FDF52DFCE010197F1F7F1CF62
:0401E000F894FFCFC1
:1001E4006B757461730070727A7973706965737A70
:1001F400616D2E2E2E0073706F77616C6E69616D68
:040204002E2E2E006C
:00000001FF
