:1000000012C024C023C022C021C020C01FC01EC0F7
:100010001DC01CC01BC01AC019C018C017C016C014
:1000200015C014C013C011241FBECFE5D4E0DEBF3D
:10003000CDBF10E0A0E6B0E0E6EFF2E002C0059030
:100040000D92AA3BB107D9F79ED053C1D9CFB99A27
:100050008FB581688FBD8EB589608EBD089584E1AE
:1000600090E020E43FE19BBD8ABDF9013197F1F7B3
:10007000019641E080309407B1F708958FEF90E04A
:1000800020EA3FE09BBD8ABDF9013197F1F7019766
:1000900083319105B9F70895C39A98B3282F207F2B
:1000A0009F70922B98BBC3980000C39A98B3829517
:1000B000807F9F70892B88BBC39885E38A95F1F771
:1000C0000895C29881E0E8DFC29A88E696E0019739
:1000D000F1F70895EF92FF920F931F93CF93DF9361
:1000E000F82EE92EEEDFEF2DFE2DDF010D90002022
:1000F000E9F711971A2F1F19111664F40F2DEF2C21
:10010000E7017E01FF2EE7018991C6DF7E01E01A3B
:10011000E116D4F3DF91CF911F910F91FF90EF90F3
:1001200008958CEF87BB18BA88EC9FEA0197F1F726
:10013000C39A88B3806388BBC39884E090E1019739
:10014000F1F7C39AC39885E8982F9A95F1F7C39A67
:10015000C3988A95F1F7C39AC498C398C29888E265
:100160009BDFC29AC29886E097DFC29AC2988EE05F
:1001700093DFC29AA6DF0895A198A298A398A99A9E
:10018000AA9AAB9A08952F923F924F925F926F92E4
:100190007F928F929F92AF92BF92CF92DF92EF9217
:1001A000FF920F931F93DF93CF9300D000D0CDB772
:1001B000DEB7B7DFE1DF4BDF78940F2EF0ED4F2E87
:1001C000F7E05F2EF02D80E090E08B839C83C201EE
:1001D000342C292E81E090E089839A830F2EFAE750
:1001E0008F2EF0E09F2EF02D0F2EF8EECF2EF3E0A5
:1001F000DF2EF02D0F2EFAE86F2EF0E07F2EF02D7F
:1002000073C0E4E6F0E03197F1F70197D1F703C04E
:100210009B99FECF04C09B99FBCFC20101C0C201D4
:10022000E4E6F0E03197F1F70197D1F780E690E04E
:1002300051DFEE24FF2401E010E0AA24BB24A394A4
:1002400002C009811A81999907C00894E11CF11C28
:100250008BE690E03FDF0FC09A9907C00894E10851
:10026000F10882E790E036DF06C09B9904C00B815D
:100270001C81A02EB12E832D922DE4E6F0E0319763
:10028000F1F70197D1F701301105E9F281E0A816E5
:10029000B104B9F21E141F04DCF400E010E0C40144
:1002A00019DFDDDEC601E4E6F0E03197F1F70197F2
:1002B000D1F7C3010FDFE2DEC601E4E6F0E03197DB
:1002C000F1F70197D1F70F5F1F4F0E151F053CF394
:1002D00088E990E0FFDEC201E4E6F0E03197F1F753
:1002E0000197D1F79B99FECF89EA90E0F3DEC20136
:0602F00088CFF894FFCF57
:1002F600696C65207065746C693F00646F64616E3B
:100306006F006F64656A65746F0070727A797370D6
:100316006965737A616D2E2E2E0073706F77616C2E
:100326006E69616D2E2E2E007A616B6F6E637A6F29
:100336006E6F20707261636500776974616D206B02
:0A0346006C696B6E696A204F4B0072
:00000001FF
