:1000000012C024C023C022C021C020C01FC01EC0F7
:100010001DC01CC01BC01AC019C018C017C016C014
:1000200015C014C013C011241FBECFE5D4E0DEBF3D
:10003000CDBF10E0A0E6B0E0ECEDF3E002C005902B
:100040000D92AC3AB107D9F7CAD0C6C1D9CFB99A87
:100050008FB581688FBD8EB589608EBD089584E1AE
:1000600090E020E43FE19BBD8ABDF9013197F1F7B3
:10007000019641E080309407B1F708958FEF90E04A
:1000800020EA3FE09BBD8ABDF9013197F1F7019766
:1000900083319105B9F70895C39A98B3282F207F2B
:1000A0009F70922B98BBC3980000C39A98B3829517
:1000B000807F9F70892B88BBC39885E38A95F1F771
:1000C0000895C29881E0E8DFC29A88E696E0019739
:1000D000F1F70895EF92FF920F931F93CF93DF9361
:1000E000F82EE92EEEDFEF2DFE2DDF010D90002022
:1000F000E9F711971A2F1F19111664F40F2DEF2C21
:10010000E7017E01FF2EE7018991C6DF7E01E01A3B
:10011000E116D4F3DF91CF911F910F91FF90EF90F3
:1001200008958CEF87BB18BA88EC9FEA0197F1F726
:10013000C39A88B3806388BBC39884E090E1019739
:10014000F1F7C39AC39885E8982F9A95F1F7C39A67
:10015000C3988A95F1F7C39AC498C398C29888E265
:100160009BDFC29AC29886E097DFC29AC2988EE05F
:1001700093DFC29AA6DF0895A198A298A398A99A9E
:10018000AA9AAB9A0895CF93DF93EC01FB0180818B
:100190009181843691052CF01182108280E090E0EC
:1001A0000AC099232CF483E690E09183808307C0F2
:1001B0008A30910524F4805D888319820DC02AE07D
:1001C00030E0B901E2D0605D688380819181B9013E
:1001D000DCD0805D89831A82DF91CF9108952F92C0
:1001E0003F924F925F926F927F928F929F92AF92C7
:1001F000BF92CF92DF92EF92FF920F931F93DF9304
:10020000CF93CDB7DEB72B970FB6F894DEBF0FBEF6
:10021000CDBF87DFB1DF1BDF78940F2EF0ED2F2EDF
:10022000F7E03F2EF02D04E610E00F2EF3E08F2EC6
:100230009924F02D8C0E9D1E80E090E08A879B878C
:10024000C1012E829F8381E090E0888799870F2EDD
:10025000FBE66F2EF0E07F2EF02D0F2EF8EECF2E66
:10026000F3E0DF2EF02D0F2EFBE74F2EF0E05F2E98
:10027000F02D84C0C8010197F1F721503040D1F72B
:1002800003C09B99FECF04C09B99FBCF910101C095
:100290009101C8010197F1F721503040D1F780E674
:1002A00090E018DFEE24FF24E394AA24BB24A39457
:1002B00002C0E884F98499990DC089819A810196D8
:1002C0009A838983C401BE016F5F7F4F5CDFC401E5
:1002D00001DF15C09A990DC089819A8101979A838F
:1002E0008983C401BE016F5F7F4F4DDFC401F2DE21
:1002F00006C09B9904C0EA84FB84AE2CBF2C2E81DF
:100300003F81C8010197F1F721503040D1F781E0DA
:10031000E816F10481F281E0A816B10451F2898156
:100320009A8118161906F4F4EE24FF24C301D2DED4
:1003300096DE9601C8010197F1F721503040D1F7C0
:10034000C201C8DE9BDE9601C8010197F1F721507A
:100350003040D1F70894E11CF11C89819A81E8169C
:10036000F90624F389E890E0B5DE9101C801019710
:10037000F1F721503040D1F79B99FECF1A821982B4
:100380008AE990E0A7DE910175CF97FB092E072639
:100390000AD077FD04D00CD006D000201AF4709556
:1003A00061957F4F0895F6F7909581959F4F089539
:1003B000AA1BBB1B51E107C0AA1FBB1FA617B7078B
:1003C00010F0A61BB70B881F991F5A95A9F78095A7
:0C03D0009095BC01CD010895F894FFCF7A
:1003DC00696C65207065746C693F0070727A797312
:1003EC00706965737A616D2E2E2E0073706F776154
:1003FC006C6E69616D2E2E2E007A616B6F6E637A56
:10040C006F6E6F20707261636500776974616D2027
:0C041C006B6C696B6E696A204F4B00002E
:00000001FF
