:1000000012C024C0F1C022C021C020C01FC01EC029
:100010001DC01CC01BC01AC019C018C017C016C014
:1000200015C014C013C011241FBECFE5D4E0DEBF3D
:10003000CDBF10E0A0E6B0E0E0E0F3E002C0059044
:100040000D92A838B107D9F711D158C1D9CFB99AB3
:10005000B89A8FB581688FBD8EB58C608EBD0895BE
:10006000A198A298A398A098A99AAA9AAB9AA89A9C
:1000700085B78C6085BF8BB780688BBF0895C09AA9
:100080000895C09808958130910531F4F8DF89E131
:1000900090E09BBD8ABD08952FEF8F3F920731F40A
:1000A000EEDF8AE090E09BBD8ABD0895EADF089507
:1000B000CF93DF93EC01FB01808191818436910520
:1000C0002CF01182108280E090E00AC099232CF479
:1000D00083E690E09183808307C08A30910524F401
:1000E000805D888319820DC02AE030E0B901DFD03D
:1000F000605D688380819181B901D9D0805D8983F9
:100100001A82DF91CF910895C39A98B3282F207F48
:100110009F70922B98BBC3980000C39A98B38295A6
:10012000807F9F70892B88BBC39885E38A95F1F700
:100130000895C29881E0E8DFC29A88E696E00197C8
:10014000F1F708958CEF87BB18BA88EC9FEA019706
:10015000F1F7C39A88B3806388BBC39884E090E1C9
:100160000197F1F7C39AC39885E8982F9A95F1F70C
:10017000C39AC3988A95F1F7C39AC498C398C29852
:1001800088E2C2DFC29AC29886E0BEDFC29AC298F5
:100190008EE0BADFC29ACDDF0895EF92FF920F93FF
:1001A0001F93CF93DF93F82EE92EC3DFEF2DFE2DA3
:1001B000DF010D900020E9F711971A2F1F19111672
:1001C00064F40F2DEF2CE7017E01FF2EE7018991EA
:1001D0009BDF7E01E01AE116D4F3DF91CF911F91EE
:1001E0000F91FF90EF9008951F920F920FB60F920C
:1001F00011242F933F934F935F936F937F938F932C
:100200009F93AF93BF93EF93FF938FEF9FEF3BDFEE
:1002100080E690E0C2DFFF91EF91BF91AF919F9197
:100220008F917F916F915F914F913F912F910F909F
:100230000FBE0F901F90189588EE93E024E630E0F3
:10024000F9013197F1F70197D9F786E690E0A5DF3C
:10025000989B08C08FEF9FEF16DF989B02C098997C
:10026000FECF0FDF85E790E098DF0895CF93DF930F
:1002700069DFF6DEECDE789404DFDEDF80E29EE408
:1002800024E630E0F9013197F1F70197D9F781E0E1
:1002900090E0F9DE81E890E080DFC1E8D0E0989955
:1002A000FECF81E090E0EFDECE0177DFF8CF97FB65
:1002B000092E07260AD077FD04D00CD006D00020E6
:1002C0001AF4709561957F4F0895F6F79095819592
:1002D0009F4F0895AA1BBB1B51E107C0AA1FBB1F5C
:1002E000A617B70710F0A61BB70B881F991F5A95C2
:1002F000A9F780959095BC01CD010895F894FFCFA2
:10030000434F46414D00706F7A79636A6F6E6F7725
:10031000616E696500726561647920746F20676F32
:080320000050525A4F44000046
:00000001FF
