:1000000012C024C023C022C021C020C01FC01EC0F7
:100010001DC01CC01BC01AC019C018C017C016C014
:1000200015C014C013C011241FBECFE5D4E0DEBF3D
:10003000CDBF10E0A0E6B0E0E8E6F4E002C0059035
:100040000D92A03BB107D9F797D10CC2D9CFB99A7D
:100050008FB581688FBD8EB589608EBD0895A198DA
:10006000A298A398A99AAA9AAB9A089584E190E0DD
:1000700020E43FE19BBD8ABDF9013197F1F701967C
:1000800041E080309407B1F708958FEF90E020EAC7
:100090003FE09BBD8ABDF9013197F1F701978331AC
:1000A0009105B9F70895CF93DF93EC01FB018081AF
:1000B0009181843691052CF01182108280E090E0CD
:1000C0000AC099232CF483E690E09183808307C0D3
:1000D0008A30910524F4805D888319820DC02AE05E
:1000E00030E0B90198D1605D688380819181B90168
:1000F00092D1805D89831A82DF91CF910895C39A4E
:1001000098B3282F207F9F70922B98BBC398000034
:10011000C39A98B38295807F9F70892B88BBC398C0
:1001200085E38A95F1F70895C29881E0E8DFC29AE5
:1001300088E696E00197F1F708958CEF87BB18BA2F
:1001400088EC9FEA0197F1F7C39A88B3806388BB74
:10015000C39884E090E10197F1F7C39AC39885E8CA
:10016000982F9A95F1F7C39AC3988A95F1F7C39A95
:10017000C498C398C29888E2C2DFC29AC29886E047
:10018000BEDFC29AC2988EE0BADFC29ACDDF089570
:10019000EF92FF920F931F93CF93DF93F82EE92EE8
:1001A000C3DFEF2DFE2DDF010D900020E9F7119741
:1001B0001A2F1F19111664F40F2DEF2CE7017E0181
:1001C000FF2EE70189919BDF7E01E01AE116D4F34F
:1001D000DF91CF911F910F91FF90EF9008958F9233
:1001E0009F92AF92BF92CF92DF92EF92FF920F93C6
:1001F0001F93CF93DF936C01181619066CF500E07E
:1002000010E00F2EF0E6AF2EF0E0BF2EF02D0F2EF7
:10021000F8EEEF2EF3E0FF2EF02DC4E6D0E00F2E27
:10022000F1E78F2EF0E09F2EF02DC501B1DF1EDF2C
:10023000C701FE013197F1F70197D9F7C401A8DF93
:1002400024DFC701FE013197F1F70197D9F70F5F5E
:100250001F4F0C151D054CF3DF91CF911F910F918E
:10026000FF90EF90DF90CF90BF90AF909F908F90D6
:1002700008952F923F924F925F926F927F928F924A
:100280009F92AF92BF92CF92DF92EF92FF920F9325
:100290001F93DF93CF9300D00F92CDB7DEB76C01E1
:1002A00082E890E075DF80ED97E024E630E0F90128
:1002B0003197F1F70197D9F7EE24FF24E3948824CE
:1002C000992483943E010894611C711C22243324D8
:1002D0000F2EF0EDAF2EF7E0BF2EF02D04E610E06C
:1002E00044245524439401C0720199990CC0F6012D
:1002F00080819181019691838083C301B601D3DE11
:10030000C30146DF12C09A990CC0F6018081918129
:10031000019791838083C301B601C5DEC30138DF35
:1003200004C09B9902C071014101C501F8013197D8
:10033000F1F70197D9F7F1E0EF16F104B1F281E09E
:100340008816910489F2F601808191810F900F90B7
:100350000F90CF91DF911F910F91FF90EF90DF9061
:10036000CF90BF90AF909F908F907F906F905F9055
:100370004F903F902F9008958F929F92AF92BF928F
:10038000CF92DF92EF92FF920F931F93DF93CF9361
:1003900000D0CDB7DEB7D1DE62DE59DE78940F2E05
:1003A000FFE8AF2EF0E0BF2EF02D0F2EF0EDEF2E78
:1003B000F7E0FF2EF02D04E610E06E010894C11C5A
:1003C000D11C0F2EF0EA8F2EF0E09F2EF02D1A8216
:1003D0001982C501DDDEC701F8013197F1F70197F8
:1003E000D9F703C09B99FECF02C09B99FBCFC601F2
:1003F00040DF9A838983F3DEC401CADEC701F801B6
:100400003197F1F70197D9F703C09B99FECFDFCF62
:100410009B99FBCFDCCF97FB092E07260AD077FDEF
:1004200004D00CD006D000201AF4709561957F4F4F
:100430000895F6F7909581959F4F0895AA1BBB1BD1
:1004400051E107C0AA1FBB1FA617B70710F0A61BD4
:10045000B70B881F991F5A95A9F780959095BC01F5
:08046000CD010895F894FFCFCF
:10046800696E6B72656D656E7461636A612E2E2E9E
:100478000064656B72656D656E7461636A612E2ECA
:100488002E00696C6F7363207065746C693A00772D
:100498006974616D206B6C696B6E696A204F4B00E3
:1004A800726F7A706F637A6E696A202D204F4B00E5
:00000001FF
