:1000000012C024C023C022C021C020C01FC01EC0F7
:100010001DC01CC01BC01AC019C018C017C016C014
:1000200015C014C013C011241FBECFE5D4E0DEBF3D
:10003000CDBF10E0A0E6B0E0E0E8F2E002C005903D
:100040000D92AE3AB107D9F79ED018C1D9CFB99A5F
:100050008FB581688FBD8EB589608EBD089584E1AE
:1000600090E020E83EE39BBD8ABDF9013197F1F7AE
:10007000019641E080309407B1F708958FEF90E04A
:1000800020E83EE39BBD8ABDF9013197F1F7019766
:1000900083319105B9F70895C39A98B3282F207F2B
:1000A0009F70922B98BBC3980000C39A98B3829517
:1000B000807F9F70892B88BBC39885E38A95F1F771
:1000C0000895C29881E0E8DFC29A88E696E0019739
:1000D000F1F70895EF92FF920F931F93CF93DF9361
:1000E000F82EE92EEEDFEF2DFE2DDF010D90002022
:1000F000E9F711971A2F1F19111664F40F2DEF2C21
:10010000E7017E01FF2EE7018991C6DF7E01E01A3B
:10011000E116D4F3DF91CF911F910F91FF90EF90F3
:1001200008958CEF87BB18BA88EC9FEA0197F1F726
:10013000C39A88B3806388BBC39884E090E1019739
:10014000F1F7C39AC39885E8982F9A95F1F7C39A67
:10015000C3988A95F1F7C39AC498C398C29888E265
:100160009BDFC29AC29886E097DFC29AC2988EE05F
:1001700093DFC29AA6DF0895A198A298A398A99A9E
:10018000AA9AAB9A08952F923F924F925F926F92E4
:100190007F928F929F92AF92BF92CF92DF92EF9217
:1001A000FF920F931F93CF93DF93BBDFE5DF4FDF0A
:1001B0007894FF240F2EFDE9CF2EF0E0DF2EF02DF6
:1001C0000F2EF0E6AF2EF0E0BF2EF02D00E513EC81
:1001D0000F2EFBE64F2EF0E05F2EF02DEE246894FC
:1001E000E1F80F2EF5E72F2EF0E03F2EF02DC4E6BC
:1001F000D0E03FC09B99FECFC5016CDFC8010197DD
:10020000F1F7999904C0C20165DFFE2CF7CF9A99E6
:1002100007C0C1015FDF0F2EF5E0FF2EF02DEECFFE
:100220009B99ECCF8F2C992487FC90948114910496
:1002300001F1662477248FE790E04CDF10DF28EE91
:1002400033E0CE010197F1F721503040D1F78FE82C
:1002500090E040DF13DF28EE33E0CE010197F1F7A5
:1002600021503040D1F70894611C711C6814790446
:1002700010F3C6012FDF9B99BDCFBECFF894FFCFFF
:10028000696C65207065746C693F00696C6F7320E0
:10029000746F203200696C6F7320746F20350070AA
:1002A000727A7973706965737A616D2E2E2E007380
:1002B000706F77616C6E69616D2E2E2E0077697498
:0E02C000616D206B6C696B6E696A204F4B009C
:00000001FF
