:1000000012C024C023C022C021C020C01FC01EC0F7
:100010001DC01CC01BC01AC019C018C017C016C014
:1000200015C014C013C011241FBECFE5D4E0DEBF3D
:10003000CDBF10E0A0E6B0E0EAE8F2E002C0059033
:100040000D92A63AB107D9F790D01DC1D9CFB99A70
:100050008FB581688FBD8EB589608EBD089544E1EE
:1000600020EA3FE0842F992787FD90959BBD8ABDAC
:10007000C9010197F1F74F5FF5CF0895C39A98B37F
:10008000282F207F9F70922B98BBC3980000C39AA3
:1000900098B38295807F9F70892B88BBC3988DE031
:1000A0008A95F1F70895C29881E0E8DFC29A8AE95B
:1000B00091E00197F1F70895EF92FF920F931F934C
:1000C000CF93DF93F82EE92EEEDFEF2DFE2DDF012B
:1000D0000D900020E9F711971A2F1F19111664F4DB
:1000E0000F2DEF2CE7017E01FF2EE7018991C6DF7E
:1000F0007E01E01AE116D4F3DF91CF911F910F91A9
:10010000FF90EF9008958CEF87BB18BA82EF9BE2C7
:100110000197F1F7C39A88B3806388BBC39881E0E5
:1001200094E00197F1F7C39AC39881E2982F9A95CA
:10013000F1F7C39AC3988A95F1F7C39AC498C39804
:10014000C29888E29BDFC29AC29886E097DFC29A83
:10015000C2988EE093DFC29AA6DF0895A198A29874
:10016000A398A99AAA9AAB9A08952F923F924F9278
:100170005F926F927F928F929F92AF92BF92CF9237
:10018000DF92EF92FF920F931F93CF93DF93BBDF2A
:10019000E5DF5DDF78940F2EF5E92F2EF0E03F2E9E
:1001A000F02DC9E1D0E0662463940F2EF4ED4F2EBC
:1001B000F0E35F2EF02D0BE610E0E62C0F2EF8EAB0
:1001C000CF2EF1E6DF2EF02D0F2EF3E07F2EF02D57
:1001D0000F2EF7E7AF2EF0E0BF2EF02D0F2EF7E831
:1001E0008F2EF0E09F2EF02D49C09B99FECF80E628
:1001F00090E062DF80E197E2FE013197F1F701972D
:10020000D9F7F62CC80158DF2E2D12C0C201019774
:10021000F1F7999BFBCF9A9B05C09B9B0FC0922F38
:100220008F2D02C0922F8F2D222359F0292FF82EC7
:10023000C2010197F1F7999BE9CFEDCFFF2480E050
:1002400001C08F2D8823F1F683E790E035DFC601EA
:100250000197F1F79B9B04C09B99FECFF72C01C03F
:10026000F72CC50129DFFBDEC6010197F1F7C401B8
:1002700023DFC6010197F1F7FA9499F7C1011CDF5A
:0A0280009B99B3CFB4CFF894FFCFE1
:10028A00696C65207065746C693F007A6C69637A81
:10029A00616D006F6B3F0070727A79737069657374
:1002AA007A616D2E2E2E0073706F77616C6E6961A4
:1002BA006D2E2E2E00776974616D206B6C696B6EE2
:0602CA00696A206F6B0061
:00000001FF
