:1000000012C02CC007C12AC029C028C027C026C0E2
:1000100025C024C023C022C021C020C01FC01EC0D4
:100020001DC01CC01BC011241FBECFE5D4E0DEBF25
:10003000CDBF10E0A0E6B0E0ECE5F5E002C0059031
:100040000D92A23BB107D9F710E0A2EBB0E001C0DE
:100050001D92A43BB107E1F72AD27EC2D1CFB99A53
:10006000B89A8FB581688FBD8EB58C608EBD0895AE
:10007000A198A298A398A098A99AAA9AAB9AA89A8C
:1000800085B78C6085BF8BB780688BBF08959698C5
:1000900008958E9AFCDF0895969A0895979808958A
:1000A0008F9AFCDF0895979A0895C09A0895C09892
:1000B00008958130910561F4F8DF89E190E09BBDFE
:1000C0008ABD81E090E09093B3008093B2000895E0
:1000D0002FEF8F3F920761F4E8DF8AE090E09BBD4D
:1000E0008ABD8FEF9FEF9093B3008093B200089585
:1000F000DEDF1092B3001092B2000895FC01643666
:10010000710534F4772354F06A3071054CF402C061
:1001100060E070E0605D60831182089563E670E0E6
:10012000CB016AE070E0F1D1605D6083805D818326
:1001300012820895C39A98B3282F207F9F70922B24
:1001400098BBC3980000C39A98B38295807F9F7034
:10015000892B88BBC39885E38A95F1F70895C298E7
:1001600081E0E8DFC29A80ED97E00197F1F708950A
:100170008CEF87BB18BA88EC9FEA0197F1F7C39A16
:1001800088B3806388BBC39884E090E10197F1F75E
:10019000C39AC39885E8982F9A95F1F7C39AC398A4
:1001A0008A95F1F7C39AC498C398C29888E2C2DFCF
:1001B000C29AC29886E0BEDFC29AC2988EE0BADFC9
:1001C000C29ACDDF0895EF92FF920F931F93CF93C2
:1001D000DF93F82EE92EC3DFEF2DFE2DDF010D900A
:1001E0000020E9F711971A2F1F19111664F40F2D2B
:1001F000EF2CE7017E01FF2EE70189919BDF7E0155
:10020000E01AE116D4F3DF91CF911F910F91FF9087
:10021000EF9008951F920F920FB60F9211242F9313
:100220003F934F935F936F937F938F939F93AF937E
:10023000BF93EF93FF938091B2009091B300813010
:10024000910539F48FEF9FEF34DF80E690E0BBDF5C
:1002500003C08BE690E0B7DFFF91EF91BF91AF91C4
:100260009F918F917F916F915F914F913F912F91CE
:100270000F900FBE0F901F901895989B08C08FEF9E
:100280009FEF17DF989B02C09899FECF10DF0FDF1A
:1002900008958AE790E097DFFFDE88E893E124E69F
:1002A00030E0F9013197F1F70197D9F7F0DE88E8EE
:1002B00093E124E630E0F9013197F1F70197D9F79E
:1002C000EBDE88E893E124E630E0F9013197F1F7BD
:1002D0000197D9F7DCDE08958F929F92AF92BF927B
:1002E000CF92DF92EF92FF920F931F93DF93CF9302
:1002F00000D00F92CDB7DEB76C01BFDF80ED97E085
:1003000024E630E0F9013197F1F70197D9F7CBDE18
:1003100080ED97E024E630E0F9013197F1F701979D
:10032000D9F71C141D042CF5EE24FF245E0108945B
:10033000A11CB11C0F2EF8E98F2EFAE39F2EF02D91
:1003400004E610E0B6016E197F09C501D7DEC501CC
:100350003ADF81E090E0ADDEC401F8013197F1F7BA
:100360000197D9F78ADF0894E11CF11CEC14FD0415
:100370004CF380E197E224E630E0F9013197F1F7A0
:100380000197D9F785E890E01EDF80E197E224E647
:1003900030E0F9013197F1F70197D9F77FDE82E973
:1003A00090E011DF80E197E224E630E0F901319737
:1003B000F1F70197D9F76DDF0F900F900F90CF9164
:1003C000DF911F910F91FF90EF90DF90CF90BF9042
:1003D000AF909F908F9008956F927F928F929F928F
:1003E000AF92BF92CF92DF92EF92FF920F931F9343
:1003F000DF93CF9300D00F92CDB7DEB789E990E0BD
:10040000E2DE80ED97E024E630E0F9013197F1F784
:100410000197D9F7EE24FF246624772488249924B1
:1004200083945E010894A11CB11C0F2EF0EDCF2E19
:10043000F7E0DF2EF02D04E610E099990AC0089449
:10044000E11CF11CC501B70159DEC501BCDE9401F8
:1004500011C09A990AC00894E108F108C501B701D2
:100460004DDEC501B0DE940105C09B9B02C0940126
:1004700001C09301C601F8013197F1F70197D9F74F
:1004800021303105D1F28E2D9F2D0F900F900F90BE
:10049000CF91DF911F910F91FF90EF90DF90CF9060
:1004A000BF90AF909F908F907F906F900895EF9244
:1004B000FF920F931F93CF93DF935ADEF1DDD8DDC8
:1004C000CEDDE7DD78940F2EF6EAEF2EF0E0FF2E7A
:1004D000F02D00ED17E0C4E6D0E0E9DDC70173DEE2
:1004E000C801FE013197F1F70197D9F703C09B9935
:1004F000FECF02C09B99FBCF6FDFEEDEC801FE018D
:100500003197F1F70197D9F7E8CF97FB092E072626
:100510000AD077FD04D00CD006D000201AF47095D4
:1005200061957F4F0895F6F7909581959F4F0895B7
:10053000AA1BBB1B51E107C0AA1FBB1FA617B70709
:1005400010F0A61BB70B881F991F5A95A9F7809525
:0C0550009095BC01CD010895F894FFCFF8
:10055C0041434854554E4721212100756E657870F2
:10056C00656374656420696E7400424545502E2E97
:10057C0042454550004B554E49454320505241434E
:10058C0059005556204F464600696C6F73632070B6
:10059C0065746C693A005374617274202D3E204F5F
:0205AC004B0002
:00000001FF
