:1000000012C02CC0A3C12AC029C028C027C026C046
:1000100025C024C023C022C021C020C01FC01EC0D4
:100020001DC01CC01BC011241FBECFE5D4E0DEBF25
:10003000CDBF11E0A0E6B0E0EAE6F3E102C0059032
:100040000D92AE3AB107D9F711E0AEEAB1E001C0C6
:100050001D92A03BB107E1F728D385C9D1CFB99A4A
:10006000B89A8FB581688FBD8EB58C608EBD0895AE
:10007000A198A298A398A098A99AAA9AAB9AA89A8C
:1000800085B78C6085BF8BB780688BBF08959698C5
:1000900008958E9AFCDF0895969A0895979808958A
:1000A0008F9AFCDF0895979A0895C09A0895C09892
:1000B00008958130910561F4F8DF89E190E09BBDFE
:1000C0008ABD81E090E09093AF018093AE010895E6
:1000D0002FEF8F3F920761F4E8DF8AE090E09BBD4D
:1000E0008ABD8FEF9FEF9093AF018093AE0108958B
:1000F000DEDF1092AF011092AE010895CF93DF932F
:10010000EC01FB0180819181843691052CF01182F4
:10011000108280E090E00AC099232CF483E690E0FE
:100120009183808307C08A30910524F4805D8883A1
:1001300019820DC02AE030E0B901B7D8605D68834C
:1001400080819181B901B1D8805D89831A82DF9164
:10015000CF910895C39A98B3282F207F9F70922B38
:1001600098BBC3980000C39A98B38295807F9F7014
:10017000892B88BBC39885E38A95F1F70895C298C7
:1001800081E0E8DFC29A80ED97E00197F1F70895EA
:100190008CEF87BB18BA88EC9FEA0197F1F7C39AF6
:1001A00088B3806388BBC39884E090E10197F1F73E
:1001B000C39AC39885E8982F9A95F1F7C39AC39884
:1001C0008A95F1F7C39AC498C398C29888E2C2DFAF
:1001D000C29AC29886E0BEDFC29AC2988EE0BADFA9
:1001E000C29ACDDF0895EF92FF920F931F93CF93A2
:1001F000DF93F82EE92EC3DFEF2DFE2DDF010D90EA
:100200000020E9F711971A2F1F19111664F40F2D0A
:10021000EF2CE7017E01FF2EE70189919BDF7E0134
:10022000E01AE116D4F3DF91CF911F910F91FF9067
:10023000EF9008956F927F928F929F92AF92BF92AC
:10024000CF92DF92EF92FF920F931F93DF93CF93A2
:1002500000D000D00F92CDB7DEB71A82198280E6A7
:1002600090E0C1DF80ED97E024E630E0F9013197BE
:10027000F1F70197D9F70F2EF3E0CF2EDD24F02D03
:10028000CC0EDD1E3E010894611C711C882499244B
:100290008394AA24BB240F2EF0EDEF2EF7E0FF2E5F
:1002A000F02D04E610E099990CC089819A8101969D
:1002B0009A838983C601B30121DFC60194DF9401CB
:1002C00013C09A990CC089819A8101979A83898376
:1002D000C601B30113DFC60186DF940105C09B9BF5
:1002E00002C0940101C0950189819A8181319105F3
:1002F00014F0BA82A982C701F8013197F1F701978A
:10030000D9F72130310579F289819A810F900F90C8
:100310000F900F900F90CF91DF911F910F91FF9051
:10032000EF90DF90CF90BF90AF909F908F907F9095
:100330006F900895989B08C08FEF9FEFBADE989B4F
:1003400002C09899FECFB3DEB2DE08951F920F92DD
:100350000FB60F9211242F933F934F935F936F9398
:100360007F938F939F93AF93BF93EF93FF93E2DFBE
:10037000FF91EF91BF91AF919F918F917F916F917D
:100380005F914F913F912F910F900FBE0F901F9053
:1003900018958DE690E027DF7FDE88E893E124E67C
:1003A00030E0F9013197F1F70197D9F770DE88E86D
:1003B00093E124E630E0F9013197F1F70197D9F79D
:1003C0006BDE88E59BE124E630E0F9013197F1F737
:1003D0000197D9F75CDE08952F923F924F925F927A
:1003E0006F927F928F929F92AF92BF92CF92DF9245
:1003F000EF92FF920F931F93DF93CF93CDB7DEB7AA
:1004000029970FB6F894DEBF0FBECDBF7C018B01DC
:1004100091DF88E893E124E630E0F9013197F1F7C4
:100420000197D9F740DE80E593EC0197F1F7B0DE54
:1004300016DE80ED97E024E630E0F9013197F1F720
:100440000197D9F70730110564F026E930E0029FE3
:10045000C001039F900D129F900D1124845F914065
:1004600002C080E991E01E141F040CF069C000E096
:1004700010E01E010894211C311C9C01442737FD0B
:100480004095542F2E833F83488759870F2EF4E6DB
:10049000CF2EDD24F02DC701801B910B9D838C8313
:1004A000C101BE016C5F7F4F29DEC1019CDE81E08E
:1004B00090E0FFDD6E817F818885998562D42B0174
:1004C0003C0120E030E04AE754E4E5D2B62EA72E06
:1004D000982E892E20E030E040E85FE327D488237F
:1004E00024F16B2D7A2D892D982D20E03FEF4FE7D9
:1004F00057E4C6D3181694F4C301B20120E030E0EB
:1005000040E251E4C8D205D16115710591F0C601F0
:100510000197F1F761507040D1F70BC06B2D7A2D28
:10052000892D982DF6D0CB0102C081E090E0019793
:10053000F1F700DF0F5F1F4F0E151F050CF4ABCF57
:1005400080E197E224E630E0F9013197F1F7019775
:10055000D9F788E790E047DE80E197E224E630E0D3
:10056000F9013197F1F70197D9F798DD85E890E027
:100570003ADE80E197E224E630E0F9013197F1F7C5
:100580000197D9F706DF29960FB6F894DEBF0FBEA4
:10059000CDBFCF91DF911F910F91FF90EF90DF9032
:1005A000CF90BF90AF909F908F907F906F905F9013
:1005B0004F903F902F9008956F927F928F929F92CD
:1005C000AF92BF92CF92DF92EF92FF920F931F9361
:1005D000DF93CF9300D000D00F92CDB7DEB71A8251
:1005E00019828CE890E0FFDD80ED97E024E630E0B2
:1005F000F9013197F1F70197D9F70F2EF3E0CF2EDC
:10060000DD24F02DCC0EDD1E4E010894811C911CC2
:10061000AA24BB24A394662477240F2EF0EDEF2E9A
:10062000F7E0FF2EF02D04E610E099990CC08981C7
:100630009A8101969A838983C601B4015FDDC60160
:10064000D2DD950113C09A990CC089819A810197D6
:100650009A838983C601B40151DDC601C4DD9501C9
:1006600005C09B9B02C0950101C09301C701F80121
:100670003197F1F70197D9F721303105B1F289812E
:100680009A810F900F900F900F900F90CF91DF9164
:100690001F910F91FF90EF90DF90CF90BF90AF90A0
:1006A0009F908F907F906F900895CF92DF92EF92FE
:1006B000FF920F931F93CF93DF936ADDF1DCD8DCB9
:1006C000E8DC66DDCCDC78940F2EF9E9CF2EF0E083
:1006D000DF2EF02D00ED17E0C4E6D0E0E8DCC60127
:1006E00082DDC801FE013197F1F70197D9F703C008
:1006F0009B99FECF02C09B99FBCF9CDD7C015CDF08
:10070000B7016ADEC801FE013197F1F70197D9F709
:10071000E5CFEF92FF920F931F937B018C0120E0B6
:1007200030E040E05FE4D7D287FD0FC0C801B701D9
:1007300020E030E040E05FE483D17FD39B01AC0157
:10074000205030404040504805C0C801B70175D323
:100750009B01AC01B901CA011F910F91FF90EF906D
:100760000895A0E0B0E0E6EBF3E0CAC5FC01EA01C1
:100770008081823008F438C1DB019C91923008F40A
:1007800030C1843059F4943009F02EC19181119612
:100790008C911197981709F021C126C1943009F462
:1007A00020C19230B1F4823009F01EC1CA01AF01FC
:1007B00028E0DA010D90AD01DC010D92CD01215050
:1007C000C1F7DB0111968C9111979181892389835F
:1007D0000AC1823009F405C1C280D380DB011296C0
:1007E0006D907C90139724813581468157811496B2
:1007F000ED90FD900D911C911797C60186199709F0
:100800005C0197FF04C0AA24BB24A81AB90AB0E26D
:10081000AB16B1040CF061C0181619066CF537015F
:1008200048010A2C04C096948794779467940A949C
:10083000D2F781E090E0A0E0B0E00A2C04C0880F7D
:10084000991FAA1FBB1F0A94D2F70197A109B109EA
:100850008E219F21A023B123EE24FF248701E3945E
:100860000097A105B10519F4EE24FF248701E628BD
:10087000F728082919293CC00097D1F1CA0CDB1CC4
:1008800039014A010A2C04C096948794779467949E
:100890000A94D2F781E090E0A0E0B0E00A2C04C016
:1008A000880F991FAA1FBB1F0A94D2F70197A109AD
:1008B000B10982239323A423B52321E030E040E053
:1008C00050E00097A105B10519F420E030E0A9013E
:1008D00026293729482959290BC06C147D0424F492
:1008E000EE24FF24870104C0630120E030E0A90169
:1008F0008181FB019181891709F445C0882349F062
:10090000D801C701821B930BA40BB50B9C01AD0151
:1009100004C02E193F09400B510B57FD04C019822A
:10092000DB82CA820BC081E08983DB82CA82509558
:100930004095309521953F4F4F4F5F4F2C833D831E
:100940004E835F830DC0880F991FAA1FBB1F8C8326
:100950009D83AE83BF838A819B8101979B838A831A
:100960008C819D81AE81BF819C01AD0121503040C1
:10097000404050402F3FEFEF3E07EFEF4E07EFE3D1
:100980005E0708F30BC08983DB82CA822E0D3F1DF0
:10099000401F511F2C833D834E835F8383E08883F8
:1009A0002C813D814E815F8157FF1DC0DA01C90155
:1009B00081709070A070B0705695479537952795C7
:1009C000822B932BA42BB52B8C839D83AE83BF836B
:1009D0008A819B8101969B838A8305C0E5EAF0E0CA
:1009E00003C0FB0101C0FE01CF01CDB7DEB7EEE0D1
:1009F000A3C4A0E2B0E0EEEFF4E08AC469837A8396
:100A00008B839C832D833E834F83588789E0E82E18
:100A1000F12CEC0EFD1ECE010196B70184D38E01A0
:100A20000F5E1F4FCE010596B8017DD3C701B801F7
:100A3000AE01475E5F4F95DEA9D2A096E6E084C482
:100A4000A0E2B0E0E5E2F5E063C469837A838B83DA
:100A50009C832D833E834F8358878E01075F1F4FF2
:100A6000CE010196B8015FD391E1E92EF12CEC0E95
:100A7000FD1ECE010596B70156D38A8991E08927DC
:100A80008A8BC801B701AE01475E5F4F6ADE7ED236
:100A9000A096E6E059C4A0E2B0E0E0E5F5E02CC4A1
:100AA00069837A838B839C832D833E834F8358870E
:100AB000CE010196BE01675F7F4F35D3CE0105960B
:100AC000BE016F5E7F4F2FD39985923078F0898970
:100AD0008230C0F0943019F4823041F4CBC08430BD
:100AE00019F4923079F4C6C0923051F481E02A852D
:100AF0009A89291709F480E08A87CE010996BCC03B
:100B0000823051F481E02A859A89291709F480E01E
:100B10008A8BCE014196B0C06D847E848F84988884
:100B2000ED88FE880F89188DE0E2F0E080E090E02B
:100B3000DC01AA24BB24650120E030E0A901B30157
:100B40006170707061157105D1F02E0D3F1D401F51
:100B5000511F15012601280E391E4A1E5B1E81E019
:100B600090E0A0E0B0E02E153F054007510718F0D7
:100B700080E090E0DC01820D931DA41DB51DAA0C40
:100B8000BB1CCC1CDD1C17FF09C061E0262E312CDC
:100B9000412C512CA228B328C428D528319749F0DC
:100BA000EE0CFF1C001F111F969487947794679496
:100BB000C6CF6B897C89EB85FC856E0F7F1F6E5FCE
:100BC0007F4F7C8F6B8F61E0EA857A89E71709F4A4
:100BD00060E06A8F6B8D7C8D10C0FC01E170F0705D
:100BE000309729F056954795379527955068B695D3
:100BF000A795979587956F5F7F4FB7FDEECF0CC098
:100C0000880F991FAA1FBB1F57FD8160220F331F3A
:100C1000441F551F615070408030E0E09E07E0E0C7
:100C2000AE07E0E4BE0760F36B8F7C8F6FE7E62EC4
:100C3000F12C012D112DE822F9220A231B2360E457
:100C4000E616F1040105110561F487FD0AC02115BE
:100C500031054105510529F0805C9F4FAF4FBF4FD3
:100C600080788D8F9E8FAF8FB8A383E0898FCE0160
:100C7000499602C085EA90E089D1A096E2E158C386
:100C8000A8E1B0E0E5E4F6E043C369837A838B83AF
:100C90009C832D833E834F8358878E01075F1F4FB0
:100CA000CE010196B8013FD281E1E82EF12CEC0E85
:100CB000FD1ECE010596B70136D28985823038F007
:100CC0008989823020F0C801B70196D201C08FEF28
:100CD0006896E6E039C3A8E1B0E0E0E7F6E018C3C3
:100CE00069837A838B839C832D833E834F835887CC
:100CF0008E01075F1F4FCE010196B80114D281E12A
:100D0000E82EF12CEC0EFD1ECE010596B7010BD29C
:100D10008985823038F08989823020F0C801B70196
:100D20006BD201C08FEF6896E6E00EC3A8E1B0E099
:100D3000EBE9F6E0EDC269837A838B839C832D8394
:100D40003E834F8358878E01075F1F4FCE01019668
:100D5000B801E9D181E1E82EF12CEC0EFD1ECE01A7
:100D60000596B701E0D18985823038F089898230D3
:100D700020F0C801B70140D201C081E06896E6E0EA
:100D8000E3C2A8E0B0E0E6ECF6E0C2C27B018C0171
:100D900083E08983D801C7018827B7FD8395992708
:100DA000AA27BB27282F8A83E114F1040105110526
:100DB00019F482E0898336C08EE190E09C838B83B6
:100DC000222389F080E0E81680E0F80680E008073A
:100DD00080E8180759F110950095F094E094E11C13
:100DE000F11C011D111DED82FE820F831887C801C1
:100DF000B70172D09C01215030401216130694F4B2
:100E0000022E04C0EE0CFF1C001F111F0A94D2F723
:100E1000ED82FE820F8318878EE190E0821B930B98
:100E20009C838B83CE010196B1D004C060E070E05A
:100E300080E09FEC2896E6E087C2ACE0B0E0E2E21A
:100E4000F7E06AC269837A838B839C83CE01019623
:100E5000BE016B5F7F4F67D18D81823081F182301F
:100E600070F1843021F48E81882369F10AC02F81CA
:100E7000388537FD24C06E812F3131053CF0662363
:100E800011F120E030E040E050E821C08EE190E038
:100E9000821B930B29853A854B855C8504C056954A
:100EA0004795379527958A95D2F7662381F0509517
:100EB0004095309521953F4F4F4F5F4F08C020E040
:100EC00030E0A90104C02FEF3FEF4FEF5FE7B9011A
:100ED000CA012C96E2E03CC2AF92BF92CF92DF9261
:100EE000EF92FF920F931F937B018C0180E0E81635
:100EF00080E0F80681E0080780E0180758F4EFEF7B
:100F0000EE16F1040105110509F090F480E090E07F
:100F1000DC0117C0F0E0EF16F0E0FF06F0E00F078D
:100F2000F1E01F0750F480E190E0A0E0B0E009C0DC
:100F300088E090E0A0E0B0E004C088E190E0A0E0AC
:100F4000B0E020E230E040E050E0281B390B4A0BD3
:100F50005B0B5701680104C0D694C794B794A7945B
:100F60008A95D2F7D601C50183559F4FFC01808138
:100F7000281B310941095109C9011F910F91FF90A7
:100F8000EF90DF90CF90BF90AF900895EF92FF92D7
:100F90000F931F93CF93DF93FC012481358146810A
:100FA000578161818081823020F44061EFEFF0E071
:100FB000A3C0843009F49BC0823009F492C021158B
:100FC00031054105510509F48FC00280F381E02D00
:100FD0008FEFE238F8070CF05AC0C2E8DFEFCE1B03
:100FE000DF0BCA31D1056CF579018A010C2E04C0E2
:100FF00016950795F794E7940A94D2F781E090E06C
:10100000A0E0B0E00C2E04C0880F991FAA1FBB1FE0
:101010000A94D2F70197A109B10982239323A4234B
:10102000B52321E030E040E050E00097A105B10594
:1010300019F420E030E0A9012E293F29402B512B43
:1010400003C020E030E0A901DA01C9018F77907078
:10105000A070B07080349105A105B10539F427FF67
:1010600009C0205C3F4F4F4F5F4F04C0215C3F4F92
:101070004F4F5F4FE1E0F0E0203080E0380780E044
:10108000480780E4580728F5E0E0F0E022C0E038A7
:10109000F1056CF5E158FF4FDA01C9018F779070C7
:1010A000A070B07080349105A105B10539F427FF17
:1010B00009C0205C3F4F4F4F5F4F04C0215C3F4F42
:1010C0004F4F5F4F57FF05C056954795379527956A
:1010D000319687E056954795379527958A95D1F7AC
:1010E0000BC0E0E0F0E005C0E0E0F0E005C0EFEFAD
:1010F000F0E020E030E0A9018E2F879588278795C2
:10110000942F9F77679566276795E695E22EA92F1E
:10111000A82BFE2FF62B622F732F8A2F9F2FCDB770
:10112000DEB7E6E011C1DC01FB012C9111963C9188
:10113000119712968C911297482F4F7750E0982F65
:10114000991F9927991F13966C911397862F880FD3
:10115000892B90E0661F6627661F6183009739F52B
:10116000211531054105510511F482E029C082E8BD
:101170009FEF9383828367E0220F331F441F551F25
:101180006A95D1F783E0808309C0220F331F441F83
:10119000551F82819381019793838283203080E061
:1011A000380780E0480780E4580778F320C08F3F75
:1011B000910579F4211531054105510519F484E0B3
:1011C0008083089544FF03C081E0808310C01082B3
:1011D0000EC08F5790409383828383E0808387E0A3
:1011E000220F331F441F551F8A95D1F75064248363
:1011F0003583468357830895FC01DB01908192304B
:1012000008F449C08C91823008F445C0943051F400
:1012100061818430B1F511962C91119730E0261B35
:10122000310941C0843021F0923041F48230B1F173
:1012300011968C9111978823A1F12DC06181823084
:1012400001F111968C9111976817D9F4228133819D
:1012500012968D919C9113978217930794F02817FB
:101260003907BCF0248135814681578114968D91D0
:101270009D910D90BC91A02D82179307A407B507EF
:1012800018F4662341F00DC0281739074A075B0799
:1012900028F4662331F021E030E005C020E030E0A2
:1012A00002C02FEF3FEFC901089597FB092E0726D3
:1012B0000AD077FD04D00CD006D000201AF4709527
:1012C00061957F4F0895F6F7909581959F4F08950A
:1012D000AA1BBB1B51E107C0AA1FBB1FA617B7075C
:1012E00010F0A61BB70B881F991F5A95A9F7809578
:1012F0009095BC01CD0108952F923F924F925F923D
:101300006F927F928F929F92AF92BF92CF92DF9215
:10131000EF92FF920F931F93CF93DF93CDB7DEB77A
:10132000CA1BDB0B0FB6F894DEBF0FBECDBF09940E
:101330002A88398848885F846E847D848C849B8465
:10134000AA84B984C884DF80EE80FD800C811B8173
:10135000AA81B981CE0FD11D0FB6F894DEBF0FBEA2
:0A136000CDBFED010895F894FFCF12
:10136A00646C75676F7363205042433A0042454587
:10137A00502E2E42454550004B554E49454320506C
:10138A0052414359005556204F464600696C6F73C7
:10139A0063207065746C693A005374617274202D0D
:1013AA003E204F4B00000000000000000000010238
:1013BA0002030303030404040404040404050505E6
:1013CA0005050505050505050505050505060606C0
:1013DA0006060606060606060606060606060606A3
:1013EA000606060606060606060606060607070790
:1013FA000707070707070707070707070707070773
:10140A000707070707070707070707070707070762
:10141A000707070707070707070707070707070752
:10142A00070707070707070707070707070808083F
:10143A000808080808080808080808080808080822
:10144A000808080808080808080808080808080812
:10145A000808080808080808080808080808080802
:10146A0008080808080808080808080808080808F2
:10147A0008080808080808080808080808080808E2
:10148A0008080808080808080808080808080808D2
:10149A0008080808080808080808080808080808C2
:0E14AA000808080808080808080808080800CC
:00000001FF
