:1000000012C02CC007C12AC029C028C027C026C0E2
:1000100025C024C023C022C021C020C01FC01EC0D4
:100020001DC01CC01BC011241FBECFE5D4E0DEBF25
:10003000CDBF10E0A0E6B0E0E2E1F5E002C005903F
:100040000D92A83CB107D9F710E0A8ECB0E001C0D0
:100050001D92AA3CB107E1F7F5D159C2D1CFB99AA7
:10006000B89A8FB581688FBD8EB58C608EBD0895AE
:10007000A198A298A398A098A99AAA9AAB9AA89A8C
:1000800085B78C6085BF8BB780688BBF08959698C5
:1000900008958E9AFCDF0895969A0895979808958A
:1000A0008F9AFCDF0895979A0895C09A0895C09892
:1000B00008958130910561F4F8DF89E190E09BBDFE
:1000C0008ABD81E090E09093C9008093C8000895B4
:1000D0002FEF8F3F920761F4E8DF8AE090E09BBD4D
:1000E0008ABD8FEF9FEF9093C9008093C800089559
:1000F000DEDF1092C9001092C8000895FC0164363A
:10010000710534F4772354F06A3071054CF402C061
:1001100060E070E0605D60831182089563E670E0E6
:10012000CB016AE070E0CCD1605D6083805D81834B
:1001300012820895C39A98B3282F207F9F70922B24
:1001400098BBC3980000C39A98B38295807F9F7034
:10015000892B88BBC39885E38A95F1F70895C298E7
:1001600081E0E8DFC29A88E696E00197F1F708950A
:100170008CEF87BB18BA88EC9FEA0197F1F7C39A16
:1001800088B3806388BBC39884E090E10197F1F75E
:10019000C39AC39885E8982F9A95F1F7C39AC398A4
:1001A0008A95F1F7C39AC498C398C29888E2C2DFCF
:1001B000C29AC29886E0BEDFC29AC2988EE0BADFC9
:1001C000C29ACDDF0895EF92FF920F931F93CF93C2
:1001D000DF93F82EE92EC3DFEF2DFE2DDF010D900A
:1001E0000020E9F711971A2F1F19111664F40F2D2B
:1001F000EF2CE7017E01FF2EE70189919BDF7E0155
:10020000E01AE116D4F3DF91CF911F910F91FF9087
:10021000EF9008951F920F920FB60F9211242F9313
:100220003F934F935F936F937F938F939F93AF937E
:10023000BF93EF93FF938091C8009091C9008130E4
:10024000910539F48FEF9FEF34DF80E690E0BBDF5C
:1002500003C086E690E0B7DFFF91EF91BF91AF91C9
:100260009F918F917F916F915F914F913F912F91CE
:100270000F900FBE0F901F90189588EE93E024E624
:1002800030E0F9013197F1F70197D9F785E790E070
:100290009ADF989B08C08FEF9FEF0BDF989B02C0FF
:1002A0009899FECF04DF84E890E08DDF88EE93E03C
:1002B00024E630E0F9013197F1F70197D9F788EE9C
:1002C00093E024E630E0F9013197F1F70197D9F78F
:1002D00008958F929F92AF92BF92CF92DF92EF924A
:1002E000FF920F931F93CF93DF937C01C6DF1E1401
:1002F0001F0484F500E010E00F2EF0E9CF2EF0E0AF
:10030000DF2EF02D0F2EF8E9AF2EFAE3BF2EF02DE1
:10031000C4E6D0E00F2EF6E98F2EF0E09F2EF02DF0
:10032000C60151DF81E090E0C4DEC501FE013197D6
:10033000F1F70197D9F7C40146DF8FEF9FEFB9DEE0
:10034000989B02C09899FECFB2DE0F5F1F4F0E152B
:100350001F0534F3DF91CF911F910F91FF90EF9024
:10036000DF90CF90BF90AF909F908F9008956F9245
:100370007F928F929F92AF92BF92CF92DF92EF9235
:10038000FF920F931F93DF93CF9300D00F92CDB7BF
:10039000DEB78AE990E017DF80ED97E024E630E0F1
:1003A000F9013197F1F70197D9F7EE24FF2466247C
:1003B00077248824992483945E010894A11CB11C9D
:1003C0000F2EF0EDCF2EF7E0DF2EF02D04E610E03B
:1003D00099990AC00894E11CF11CC501B7018EDE91
:1003E000C501F1DE940111C09A990AC00894E10890
:1003F000F108C501B70182DEC501E5DE940105C043
:100400009B9B02C0940101C09301C601F801319782
:10041000F1F70197D9F721303105D1F28E2D9F2DBB
:100420000F900F900F90CF91DF911F910F91FF9040
:10043000EF90DF90CF90BF90AF909F908F907F9084
:100440006F900895CF92DF92EF92FF920F931F93D8
:10045000CF93DF938DDE0CDE02DE1BDE21DE78948F
:100460000F2EF7EAEF2EF0E0FF2EF02D00ED17E053
:10047000C4E6D0E00F2EF8EBCF2EF0E0DF2EF02D0B
:1004800016DEC701A0DEC801FE013197F1F7019722
:10049000D9F703C09B99FECF02C09B99FBCF67DFC2
:1004A00018DFC60190DEC801FE013197F1F7019710
:1004B000D9F703C09B99FECFE3CF9B99FBCFE0CF49
:1004C00097FB092E07260AD077FD04D00CD006D062
:1004D00000201AF4709561957F4F0895F6F7909576
:1004E00081959F4F0895AA1BBB1B51E107C0AA1F0E
:1004F000BB1FA617B70710F0A61BB70B881F991FC5
:100500005A95A9F780959095BC01CD010895F8946E
:02051000FFCF1B
:10051200434F46414D00756E65787065637465643E
:1005220020696E7400706F7A79636A6F6E6F77619B
:100532006E696500726561647920746F20676F006F
:1005420050525A4F440054594C00696C6F736320E7
:100552007065746C693A00776974616D206B6C69BF
:100562006B6E696A204F4B007A616B6F6E637A6FB4
:080572006E6F202D204F4B009D
:00000001FF
