:1000000012C02CC023C12AC029C028C027C026C0C6
:1000100025C024C023C022C021C020C01FC01EC0D4
:100020001DC01CC01BC011241FBECFE5D4E0DEBF25
:10003000CDBF10E0A0E6B0E0E6EAF5E002C0059032
:100040000D92A839B107D9F710E0A8E9B0E001C0D6
:100050001D92AA39B107E1F74ED2A3C2D1CFB99A06
:10006000B89A8FB581688FBD8EB58C608EBD0895AE
:10007000A198A298A398A098A99AAA9AAB9AA89A8C
:1000800085B78C6085BF8BB780688BBF08959698C5
:1000900008958E9AFCDF0895969A0895979808958A
:1000A0008F9AFCDF0895979A0895C09A0895C09892
:1000B00008958130910561F4F8DF89E190E09BBDFE
:1000C0008ABD81E090E09093990080939800089514
:1000D0002FEF8F3F920761F4E8DF8AE090E09BBD4D
:1000E0008ABD8FEF9FEF90939900809398000895B9
:1000F000DEDF10929900109298000895CF93DF935D
:10010000EC01FB0180819181843691052CF01182F4
:10011000108280E090E00AC099232CF483E690E0FE
:100120009183808307C08A30910524F4805D8883A1
:1001300019820DC02AE030E0B9010CD2605D6883FD
:1001400080819181B90106D2805D89831A82DF9115
:10015000CF910895C39A98B3282F207F9F70922B38
:1001600098BBC3980000C39A98B38295807F9F7014
:10017000892B88BBC39885E38A95F1F70895C298C7
:1001800081E0E8DFC29A80ED97E00197F1F70895EA
:100190008CEF87BB18BA88EC9FEA0197F1F7C39AF6
:1001A00088B3806388BBC39884E090E10197F1F73E
:1001B000C39AC39885E8982F9A95F1F7C39AC39884
:1001C0008A95F1F7C39AC498C398C29888E2C2DFAF
:1001D000C29AC29886E0BEDFC29AC2988EE0BADFA9
:1001E000C29ACDDF0895EF92FF920F931F93CF93A2
:1001F000DF93F82EE92EC3DFEF2DFE2DDF010D90EA
:100200000020E9F711971A2F1F19111664F40F2D0A
:10021000EF2CE7017E01FF2EE70189919BDF7E0134
:10022000E01AE116D4F3DF91CF911F910F91FF9067
:10023000EF900895989B08C08FEF9FEF3ADF989B4F
:1002400002C09899FECF33DF32DF08951F920F92DC
:100250000FB60F9211242F933F934F935F936F9399
:100260007F938F939F93AF93BF93EF93FF93E2DFBF
:10027000FF91EF91BF91AF919F918F917F916F917E
:100280005F914F913F912F910F900FBE0F901F9054
:10029000189580E690E0A7DFFFDE88E893E124E68A
:1002A00030E0F9013197F1F70197D9F7F0DE88E8EE
:1002B00093E124E630E0F9013197F1F70197D9F79E
:1002C000EBDE88E59BE124E630E0F9013197F1F7B8
:1002D0000197D9F7DCDE08956F927F928F929F92FB
:1002E000AF92BF92CF92DF92EF92FF920F931F9344
:1002F000DF93CF9300D000D00F92CDB7DEB76C0163
:1003000099DF88E893E124E630E0F9013197F1F7CD
:100310000197D9F7C8DE80E593EC0197F1F738DF54
:100320009EDE80ED97E024E630E0F9013197F1F7A9
:100330000197D9F71C141D0474F5EE24FF248824BA
:100340009924689482F88C0E9D1E5E010894A11C6D
:10035000B11C0F2EF8E96F2EFAE37F2EF02D04E684
:1003600010E0C6018E199F099D838C83C501B401DD
:10037000C5DEC50138DF81E090E09BDEC301F801F6
:100380003197F1F70197D9F755DF0894E11CF11C7B
:10039000EC14FD0434F380E197E224E630E0F90147
:1003A0003197F1F70197D9F78BE690E01CDF80E1F8
:1003B00097E224E630E0F9013197F1F70197D9F798
:1003C0006DDE88E790E00FDF80E197E224E630E021
:1003D000F9013197F1F70197D9F75BDF0F900F9093
:1003E0000F900F900F90CF91DF911F910F91FF9081
:1003F000EF90DF90CF90BF90AF909F908F907F90C5
:100400006F9008956F927F928F929F92AF92BF925A
:10041000CF92DF92EF92FF920F931F93DF93CF93D0
:1004200000D000D00F92CDB7DEB71A8219828FE7C5
:1004300090E0D9DE80ED97E024E630E0F9013197D5
:10044000F1F70197D9F70F2EF3E0CF2EDD24F02D31
:10045000CC0EDD1E4E010894811C911CAA24BB24E5
:10046000A394662477240F2EF0EDEF2EF7E0FF2EF5
:10047000F02D04E610E099990CC089819A810196CB
:100480009A838983C601B40139DEC601ACDE9501C9
:1004900013C09A990CC089819A8101979A838983A4
:1004A000C601B4012BDEC6019EDE950105C09B9BF3
:1004B00002C0950101C09301C701F8013197F1F71E
:1004C0000197D9F721303105B1F289819A810F90D6
:1004D0000F900F900F900F90CF91DF911F910F9180
:1004E000FF90EF90DF90CF90BF90AF909F908F9054
:1004F0007F906F900895EF92FF920F931F93CF9389
:10050000DF9346DECDDDB4DDC4DD42DEA8DD7894C8
:100510000F2EFCE8EF2EF0E0FF2EF02D00ED17E09F
:10052000C4E6D0E0C4DDC7015EDEC801FE0131973C
:10053000F1F70197D9F703C09B99FECF02C09B99B1
:10054000FBCF60DFC9DEC801FE013197F1F70197EB
:10055000D9F7E8CF97FB092E07260AD077FD04D0FC
:100560000CD006D000201AF4709561957F4F089545
:10057000F6F7909581959F4F0895AA1BBB1B51E1FB
:1005800007C0AA1FBB1FA617B70710F0A61BB70B03
:10059000881F991F5A95A9F780959095BC01CD01A8
:0605A0000895F894FFCF5E
:1005A600424545502E2E42454550004B554E494535
:1005B60043205052414359005556204F4646006944
:1005C6006C6F7363207065746C693A005374617262
:0805D60074202D3E204F4B0064
:00000001FF
