:1000000012C02CC0B3C22AC029C028C027C026C035
:1000100025C0A9C123C022C021C020C01FC01EC04E
:100020001DC01CC01BC011241FBECFE5D4E0DEBF25
:10003000CDBF11E0A0E6B0E0E4E3F6E102C0059038
:100040000D92A63CB107D9F711E0A6ECB1E001C0D2
:100050001D92A23DB107E1F78AD4EACAD1CFB99A7D
:10006000B89A8FB581688FBD8EB58C608EBD0895AE
:10007000A198A298A398A098A99AAA9AAB9AA89A8C
:1000800085B78C6085BF8BB780688BBF089583B7B9
:10009000856083BF89B7816089BF08959698089568
:1000A0008E9AFCDF0895969A0895979808958F9AEE
:1000B000FCDF0895979A0895C09A0895C09808950E
:1000C0008130910561F4F8DF89E190E09BBD8ABD44
:1000D00081E090E09093C7018093C60108952FEFCF
:1000E0008F3F920761F4E8DF8AE090E09BBD8ABD14
:1000F0008FEF9FEF9093C7018093C6010895DEDFD5
:100100001092C7011092C6010895CF93DF93FC01AE
:10011000EB018881998123E0883E92072CF01982B7
:10012000188280E090E00AC099232CF487EE93E0D7
:100130009983888318C08A30910524F4805D808378
:1001400011822CC08436910574F42AE030E0B901A4
:1001500011DA605D608388819981B9010BDA805D75
:10016000818312821BC023E0883E9207BCF424E600
:1001700030E0B901FFD9605D608388819981B90160
:10018000F9D92AE030E0B901F5D9605D6183888151
:100190009981B901EFD9805D82831382DF91CF917C
:1001A0000895CF93DF93EC01FB018081918123E0DF
:1001B000883E92071CF01182108208C080819181D4
:1001C000992324F487EE93E0918380838081918149
:1001D0008A30910534F480819181805D8883198211
:1001E00034C0808191818436910584F4808191812D
:1001F0002AE030E0B901BED9605D688380819181D9
:10020000B901B8D9805D89831A821FC0808191812C
:1002100023E0883E9207CCF48081918124E630E08F
:10022000B901A8D9605D688380819181B901A2D9A3
:100230002AE030E0B9019ED9605D698380819181B7
:10024000B90198D9805D8A831B82DF91CF9108958F
:10025000C39A98B3282F207F9F70922B98BBC39886
:100260000000C39A98B38295807F9F70892B88BBCA
:10027000C39885E38A95F1F70895C29880E8E8DF8E
:10028000C29A80ED97E00197F1F70895C29880EC4B
:10029000DFDFC29A80ED97E00197F1F70895EF92C2
:1002A000FF920F931F93CF93DF93E82FF92FDF0176
:1002B0000D900020E9F711971A2F181B111664F4FE
:1002C000082FE82EE7017E01F92EE7018991C0DFB2
:1002D0007E01E01AE116D4F3DF91CF911F910F91C7
:1002E000FF90EF900895D2DF80E690E0D8DF80EDB8
:1002F00097E00197F1F7CADF0895BFDF80E690E04D
:10030000CEDF80ED97E00197F1F7B7DF08958CEF2E
:1003100087BB18BA88EC9FEA0197F1F7C39A88B3B4
:10032000806388BBC39884E090E10197F1F7C39A9A
:10033000C39885E8982F9A95F1F7C39AC3988A9540
:10034000F1F7C39AC498C398C29888E281DFC29A31
:10035000C29886E07DDFC29AC2988EE079DFC29AA9
:10036000C2DFCBDF08951F920F920FB60F921124B8
:100370002F933F934F935F936F937F938F939F93AD
:10038000AF93BF93CF93DF93EF93FF938091C80117
:100390009091C9010097D1F18091CC019091CD014C
:1003A00001969093CD018093CC018091CC019091E6
:1003B000CD016FE070E0DED8009741F58091CA0171
:1003C0009091CB0101979093CB018093CA01109239
:1003D000CD011092CC01CEECD1E0CE016AEC71E0FF
:1003E000E0DE81DFCE015BDF85E790E058DF8091C2
:1003F000CA019091CB011816190644F01092C90158
:100400001092C8011092CB011092CA01FF91EF9196
:10041000DF91CF91BF91AF919F918F917F916F911C
:100420005F914F913F912F910F900FBE0F901F90B2
:1004300018956F927F928F929F92AF92BF92CF92B8
:10044000DF92EF92FF920F931F93DF93CF9300D031
:1004500000D00F92CDB7DEB71A82198244DF4DDF8C
:1004600087E790E01CDF80ED97E024E630E0F901BB
:100470003197F1F70197D9F70F2EF3E0EF2EFF2414
:10048000F02DEC0EFD1E4E010894811C911C0F2EC8
:10049000F4E86F2EF0E07F2EF02DAA24BB24A39465
:1004A0000F2EF0EDCF2EF7E0DF2EF02D04E610E05A
:1004B000999914C089819A8101969A83898381319F
:1004C000910514F01A821982C701B4011EDE0BDFF8
:1004D000C701E5DEC301E3DE95011DC09A9915C091
:1004E00089819A8101979A838983992324F480E1F1
:1004F00090E09A838983C701B40107DEF4DEC70167
:10050000CEDEC301CCDE950106C09B9B02C09501E7
:1005100002C020E030E0C601F8013197F1F7019701
:10052000D9F72130310521F289819A810F900F90FE
:100530000F900F900F90CF91DF911F910F91FF902F
:10054000EF90DF90CF90BF90AF909F908F907F9073
:100550006F900895989B08C08FEF9FEFB1DD989B37
:1005600002C09899FECFAADDA9DD08951F920F92CF
:100570000FB60F9211242F933F934F935F936F9376
:100580007F938F939F93AF93BF93EF93FF93E2DF9C
:10059000FF91EF91BF91AF919F918F917F916F915B
:1005A0005F914F913F912F910F900FBE0F901F9031
:1005B000189579DD88E893E124E630E0F901319778
:1005C000F1F70197D9F76ADD88E893E124E630E096
:1005D000F9013197F1F70197D9F765DD88E59BE1DE
:1005E00024E630E0F9013197F1F70197D9F756DDAC
:1005F00008952F923F924F925F926F927F928F92C7
:100600009F92AF92BF92CF92DF92EF92FF920F93A1
:100610001F93CF93DF932C0188E04816510464F0B8
:100620008EEB90E0489EE001499ED00D589ED00D83
:100630001124C05CD34002C0C2E7D1E08BDF88E860
:1006400093E124E630E0F9013197F1F70197D9F70A
:1006500031DD80ED97E024E630E0F9013197F1F7E4
:100660000197D9F74ADE87E890E019DE8091CA0148
:100670009091CB01009739F588E0481651043CF47D
:1006800084E690E09093CB018093CA011CC08BE07C
:10069000481651043CF48EE690E09093CB01809391
:1006A000CA0111C08EE0481651043CF488E790E07E
:1006B0009093CB018093CA0106C084E690E09093AA
:1006C000CB018093CA0181E090E09093C9018093AF
:1006D000C8011DDEC4DC12BE1092CD011092CC0107
:1006E0003E01882477FC8094982CC4E6D0E00F2E3D
:1006F000F8E82F2EF3E13F2EF02D62C081E090E06C
:10070000DFDCC401B301A2D47B018C0120E030E026
:100710004AE754E425D3D62EC72EB82EA92E20E0C2
:1007200030E040E85FE367D4882324F16D2D7C2D11
:100730008B2D9A2D20E03FEF4FE757E406D4181693
:1007400094F4C801B70120E030E040E251E408D35E
:1007500045D16115710591F0CE010197F1F7615016
:100760007040D1F70BC06D2D7C2D8B2D9A2D36D17D
:10077000CB0102C081E090E00197F1F79FDC88E0B7
:100780004816510444F480E29EE4FE013197F1F7EB
:100790000197D9F707C0C101FE013197F1F7019721
:1007A000D9F742C0D7DE80E29EE4FE013197F1F72F
:1007B0000197D9F705C0FE013197F1F70197D9F7F5
:1007C0008091CA019091CB01181619060CF496CFAE
:1007D00088E893E124E630E0F9013197F1F70197D9
:1007E000D9F763DC88E893E124E630E0F90131973A
:1007F000F1F70197D9F777DD80DD83E990E04FDDF0
:10080000D8DEDF91CF911F910F91FF90EF90DF9095
:10081000CF90BF90AF909F908F907F906F905F90A0
:100820004F903F902F90089595DEC101C4CF8F92D5
:100830009F92AF92BF92CF92DF92EF92FF920F936F
:100840001F93CF93DF934FDD58DD80EA90E027DDE3
:1008500080ED97E024E630E0F9013197F1F7019758
:10086000D9F741DD80EB90E01ADDCC24DD24C39480
:100870000EEC11E00F2EFAECAF2EF1E0BF2EF02DB2
:100880000F2EF5E78F2EF0E09F2EF02D0F2EF0EDBE
:10089000EF2EF7E0FF2EF02DC4E6D0E0999924C0AA
:1008A0008091CA019091CB018530910554F48091DB
:1008B000CA019091CB0101969093CB018093CA011C
:1008C00009C08091CA019091CB0105969093CB010C
:1008D0008093CA01C801B50164DC05DDC801DFDC15
:1008E000C401DDDC96012CC09A9924C08091CA0114
:1008F0009091CB018A30910554F48091CA01909176
:10090000CB0101979093CB018093CA0109C08091DC
:10091000CA019091CB0105979093CB018093CA01B6
:10092000C801B5013EDCDFDCC801B9DCC401B7DCBD
:10093000960106C09B9B02C0960102C020E030E0F9
:10094000C701FE013197F1F70197D9F72130310541
:1009500009F4A4CFDF91CF911F910F91FF90EF90F9
:10096000DF90CF90BF90AF909F908F900895CF92DF
:10097000DF92EF92FF920F931F93CF93DF93C7DC29
:1009800096DB76DB8DDBC3DC6ADB81DB78940F2EB4
:10099000F2EBCF2EF0E0DF2EF02D00ED17E0C4E6F5
:1009A000D0E08CDBA0DCA9DCC60179DCC801FE014B
:1009B0003197F1F70197D9F703C09B99FECF02C099
:1009C0009B99FBCF36DD7C0132DFC70112DEC80107
:1009D000FE013197F1F70197D9F7E3CFEF92FF923C
:1009E0000F931F937B018C0120E030E040E05FE437
:1009F000D7D287FD0FC0C801B70120E030E040E04A
:100A00005FE483D17FD39B01AC0120503040404054
:100A1000504805C0C801B70175D39B01AC01B901AD
:100A2000CA011F910F91FF90EF900895A0E0B0E0F0
:100A3000EBE1F5E0CAC5FC01EA018081823008F4EF
:100A400038C1DB019C91923008F430C1843059F4F4
:100A5000943009F02EC1918111968C9111979817BD
:100A600009F021C126C1943009F420C19230B1F4BB
:100A7000823009F01EC1CA01AF0128E0DA010D90F1
:100A8000AD01DC010D92CD012150C1F7DB011196C2
:100A90008C9111979181892389830AC1823009F44D
:100AA00005C1C280D380DB0112966D907C901397B4
:100AB00024813581468157811496ED90FD900D91EA
:100AC0001C911797C601861997095C0197FF04C00E
:100AD000AA24BB24A81AB90AB0E2AB16B1040CF0E0
:100AE00061C0181619066CF5370148010A2C04C0BC
:100AF00096948794779467940A94D2F781E090E073
:100B0000A0E0B0E00A2C04C0880F991FAA1FBB1FE9
:100B10000A94D2F70197A109B1098E219F21A02340
:100B2000B123EE24FF248701E3940097A105B105CA
:100B300019F4EE24FF248701E628F728082919294B
:100B40003CC00097D1F1CA0CDB1C39014A010A2CC8
:100B500004C096948794779467940A94D2F781E0BE
:100B600090E0A0E0B0E00A2C04C0880F991FAA1FF3
:100B7000BB1F0A94D2F70197A109B10982239323DD
:100B8000A423B52321E030E040E050E00097A10528
:100B9000B10519F420E030E0A901262937294829B8
:100BA00059290BC06C147D0424F4EE24FF24870122
:100BB00004C0630120E030E0A9018181FB01918143
:100BC000891709F445C0882349F0D801C701821B61
:100BD000930BA40BB50B9C01AD0104C02E193F096A
:100BE000400B510B57FD04C01982DB82CA820BC037
:100BF00081E08983DB82CA825095409530952195AA
:100C00003F4F4F4F5F4F2C833D834E835F830DC01B
:100C1000880F991FAA1FBB1F8C839D83AE83BF8340
:100C20008A819B8101979B838A838C819D81AE8180
:100C3000BF819C01AD0121503040404050402F3FCA
:100C4000EFEF3E07EFEF4E07EFE35E0708F30BC051
:100C50008983DB82CA822E0D3F1D401F511F2C83CA
:100C60003D834E835F8383E088832C813D814E8169
:100C70005F8157FF1DC0DA01C90181709070A070BB
:100C8000B0705695479537952795822B932BA42BBB
:100C9000B52B8C839D83AE83BF838A819B81019614
:100CA0009B838A8305C0EEEBF0E003C0FB0101C02B
:100CB000FE01CF01CDB7DEB7EEE0A3C4A0E2B0E005
:100CC000E3E6F6E08AC469837A838B839C832D8371
:100CD0003E834F83588789E0E82EF12CEC0EFD1EF1
:100CE000CE010196B70184D38E010F5E1F4FCE0156
:100CF0000596B8017DD3C701B801AE01475E5F4FCD
:100D000095DEA9D2A096E6E084C4A0E2B0E0EAE8CD
:100D1000F6E063C469837A838B839C832D833E834F
:100D20004F8358878E01075F1F4FCE010196B80190
:100D30005FD391E1E92EF12CEC0EFD1ECE0105965C
:100D4000B70156D38A8991E089278A8BC801B701F8
:100D5000AE01475E5F4F6ADE7ED2A096E6E059C4E0
:100D6000A0E2B0E0E5EBF6E02CC469837A838B83E4
:100D70009C832D833E834F835887CE010196BE010D
:100D8000675F7F4F35D3CE010596BE016F5E7F4F03
:100D90002FD39985923078F089898230C0F09430D1
:100DA00019F4823041F4CBC0843019F4923079F4D4
:100DB000C6C0923051F481E02A859A89291709F436
:100DC00080E08A87CE010996BCC0823051F481E070
:100DD0002A859A89291709F480E08A8BCE014196E9
:100DE000B0C06D847E848F849888ED88FE880F89DA
:100DF000188DE0E2F0E080E090E0DC01AA24BB2462
:100E0000650120E030E0A901B301617070706115E7
:100E10007105D1F02E0D3F1D401F511F15012601F8
:100E2000280E391E4A1E5B1E81E090E0A0E0B0E073
:100E30002E153F054007510718F080E090E0DC01D7
:100E4000820D931DA41DB51DAA0CBB1CCC1CDD1C62
:100E500017FF09C061E0262E312C412C512CA2280D
:100E6000B328C428D528319749F0EE0CFF1C001F89
:100E7000111F9694879477946794C6CF6B897C8969
:100E8000EB85FC856E0F7F1F6E5F7F4F7C8F6B8FB6
:100E900061E0EA857A89E71709F460E06A8F6B8D73
:100EA0007C8D10C0FC01E170F070309729F05695F0
:100EB0004795379527955068B695A7959795879547
:100EC0006F5F7F4FB7FDEECF0CC0880F991FAA1F31
:100ED000BB1F57FD8160220F331F441F551F6150F8
:100EE00070408030E0E09E07E0E0AE07E0E4BE073F
:100EF00060F36B8F7C8F6FE7E62EF12C012D112DA7
:100F0000E822F9220A231B2360E4E616F104010516
:100F1000110561F487FD0AC0211531054105510510
:100F200029F0805C9F4FAF4FBF4F80788D8F9E8F91
:100F3000AF8FB8A383E0898FCE01499602C08EEBB4
:100F400090E089D1A096E2E158C3A8E1B0E0EAEAD6
:100F5000F7E043C369837A838B839C832D833E832D
:100F60004F8358878E01075F1F4FCE010196B8014E
:100F70003FD281E1E82EF12CEC0EFD1ECE0105964C
:100F8000B70136D28985823038F08989823020F0E5
:100F9000C801B70196D201C08FEF6896E6E039C369
:100FA000A8E1B0E0E5EDF7E018C369837A838B83AD
:100FB0009C832D833E834F8358878E01075F1F4F8D
:100FC000CE010196B80114D281E1E82EF12CEC0E8D
:100FD000FD1ECE010596B7010BD28985823038F00F
:100FE0008989823020F0C801B7016BD201C08FEF30
:100FF0006896E6E00EC3A8E1B0E0E0E0F8E0EDC2FC
:1010000069837A838B839C832D833E834F835887A8
:101010008E01075F1F4FCE010196B801E9D181E132
:10102000E82EF12CEC0EFD1ECE010596B701E0D1A5
:101030008985823038F08989823020F0C801B70173
:1010400040D201C081E06896E6E0E3C2A8E0B0E0EB
:10105000EBE2F8E0C2C27B018C0183E08983D80116
:10106000C7018827B7FD83959927AA27BB27282F73
:101070008A83E114F1040105110519F482E08983E2
:1010800036C08EE190E09C838B83222389F080E040
:10109000E81680E0F80680E0080780E8180759F1B4
:1010A00010950095F094E094E11CF11C011D111DB8
:1010B000ED82FE820F831887C801B70172D09C01B0
:1010C000215030401216130694F4022E04C0EE0C88
:1010D000FF1C001F111F0A94D2F7ED82FE820F83BE
:1010E00018878EE190E0821B930B9C838B83CE014B
:1010F0000196B1D004C060E070E080E09FEC2896DB
:10110000E6E087C2ACE0B0E0E7E8F8E06AC26983F5
:101110007A838B839C83CE010196BE016B5F7F4FE8
:1011200067D18D81823081F1823070F1843021F479
:101130008E81882369F10AC02F81388537FD24C04C
:101140006E812F3131053CF0662311F120E030E053
:1011500040E050E821C08EE190E0821B930B29858E
:101160003A854B855C8504C05695479537952795FC
:101170008A95D2F7662381F0509540953095219558
:101180003F4F4F4F5F4F08C020E030E0A90104C03F
:101190002FEF3FEF4FEF5FE7B901CA012C96E2E076
:1011A0003CC2AF92BF92CF92DF92EF92FF920F9329
:1011B0001F937B018C0180E0E81680E0F80681E057
:1011C000080780E0180758F4EFEFEE16F104010568
:1011D000110509F090F480E090E0DC0117C0F0E028
:1011E000EF16F0E0FF06F0E00F07F1E01F0750F404
:1011F00080E190E0A0E0B0E009C088E090E0A0E0ED
:10120000B0E004C088E190E0A0E0B0E020E230E08F
:1012100040E050E0281B390B4A0B5B0B570168017B
:1012200004C0D694C794B794A7948A95D2F7D601F0
:10123000C5018A539F4FFC018081281B3109410958
:101240005109C9011F910F91FF90EF90DF90CF904E
:10125000BF90AF900895EF92FF920F931F93CF939B
:10126000DF93FC0124813581468157816181808132
:10127000823020F44061EFEFF0E0A3C0843009F445
:101280009BC0823009F492C02115310541055105FA
:1012900009F48FC00280F381E02D8FEFE238F80768
:1012A0000CF05AC0C2E8DFEFCE1BDF0BCA31D1050C
:1012B0006CF579018A010C2E04C016950795F794F8
:1012C000E7940A94D2F781E090E0A0E0B0E00C2E21
:1012D00004C0880F991FAA1FBB1F0A94D2F7019759
:1012E000A109B10982239323A423B52321E030E08F
:1012F00040E050E00097A105B10519F420E030E08E
:10130000A9012E293F29402B512B03C020E030E0BA
:10131000A901DA01C9018F779070A070B070803494
:101320009105A105B10539F427FF09C0205C3F4FA5
:101330004F4F5F4F04C0215C3F4F4F4F5F4FE1E085
:10134000F0E0203080E0380780E0480780E458076C
:1013500028F5E0E0F0E022C0E038F1056CF5E15856
:10136000FF4FDA01C9018F779070A070B0708034A0
:101370009105A105B10539F427FF09C0205C3F4F55
:101380004F4F5F4F04C0215C3F4F4F4F5F4F57FFA0
:1013900005C05695479537952795319687E0569520
:1013A0004795379527958A95D1F70BC0E0E0F0E097
:1013B00005C0E0E0F0E005C0EFEFF0E020E030E055
:1013C000A9018E2F879588278795942F9F776795FA
:1013D00066276795E695E22EA92FA82BFE2FF62B00
:1013E000622F732F8A2F9F2FCDB7DEB7E6E011C192
:1013F000DC01FB012C9111963C91119712968C9176
:101400001297482F4F7750E0982F991F9927991FCF
:1014100013966C911397862F880F892B90E0661F87
:101420006627661F6183009739F52115310541054F
:10143000510511F482E029C082E89FEF93838283F3
:1014400067E0220F331F441F551F6A95D1F783E0D1
:10145000808309C0220F331F441F551F828193814F
:10146000019793838283203080E0380780E048072B
:1014700080E4580778F320C08F3F910579F4211557
:1014800031054105510519F484E08083089544FF36
:1014900003C081E0808310C010820EC08F5790403F
:1014A0009383828383E0808387E0220F331F441F6E
:1014B000551F8A95D1F7506424833583468357831B
:1014C0000895FC01DB019081923008F449C08C91B1
:1014D000823008F445C0943051F461818430B1F514
:1014E00011962C91119730E0261B310941C08430B0
:1014F00021F0923041F48230B1F111968C91119724
:101500008823A1F12DC06181823001F111968C9167
:1015100011976817D9F42281338112968D919C918D
:1015200013978217930794F028173907BCF024818A
:1015300035814681578114968D919D910D90BC9176
:10154000A02D82179307A407B50718F4662341F06E
:101550000DC0281739074A075B0728F4662331F0C6
:1015600021E030E005C020E030E002C02FEF3FEF87
:10157000C901089597FB092E07260AD077FD04D0EC
:101580000CD006D000201AF4709561957F4F089515
:10159000F6F7909581959F4F0895AA1BBB1B51E1CB
:1015A00007C0AA1FBB1FA617B70710F0A61BB70BD3
:1015B000881F991F5A95A9F780959095BC01CD0178
:1015C00008952F923F924F925F926F927F928F92E7
:1015D0009F92AF92BF92CF92DF92EF92FF920F93C2
:1015E0001F93CF93DF93CDB7DEB7CA1BDB0B0FB6CC
:1015F000F894DEBF0FBECDBF09942A883988488889
:101600005F846E847D848C849B84AA84B984C8841E
:10161000DF80EE80FD800C811B81AA81B981CE0F15
:10162000D11D0FB6F894DEBF0FBECDBFED010895FA
:04163000F894FFCF5C
:1016340020202020202020202020202020202020A6
:1016440020202020007300646C75676F7363205042
:1016540042433A00636D00706F7A6F737461C582A0
:101664006F3A004B4F4E4945432050524143590075
:10167400637A61733A20302D64656661756C740019
:1016840030005374617274202D3E204F4B000000D3
:10169400000000000000000102020303030304042D
:1016A40004040404040405050505050505050505EC
:1016B40005050505050506060606060606060606CC
:1016C40006060606060606060606060606060606B6
:1016D400060606060606070707070707070707079C
:1016E4000707070707070707070707070707070786
:1016F4000707070707070707070707070707070776
:101704000707070707070707070707070707070765
:10171400070707070707080808080808080808084B
:101724000808080808080808080808080808080835
:101734000808080808080808080808080808080825
:101744000808080808080808080808080808080815
:101754000808080808080808080808080808080805
:1017640008080808080808080808080808080808F5
:1017740008080808080808080808080808080808E5
:1017840008080808080808080808080808080808D5
:061794000808080808081F
:00000001FF
